:020000040800F2
:100000000028002001040008A5030008AB03000835
:10001000B1030008B7030008BD030008000000009A
:10002000000000000000000000000000C303000802
:10003000CF03000800000000DB030008E70300080E
:10004000490400084904000849040008490400085C
:10005000490400084904000849040008490400084C
:10006000490400084904000849040008490400083C
:10007000490400084904000849040008490400082C
:10008000490400084904000849040008490400081C
:10009000490400084904000849040008490400080C
:1000A00049040008490400084904000849040008FC
:1000B0004904000849040008000000004904000841
:1000C0004904000800000000000000004904000886
:1000D0000000000049040008490400080000000076
:1000E0004904000849040008490400080000000011
:1000F0000000000000000000000000000000000000
:0C01000000000000000000005FF808F1A3
:10010C0010B5054C237833B9044B13B10448AFF345
:10011C0000800123237010BD0C00002000000000A3
:10012C001016000808B5034B1BB103490348AFF385
:10013C00008008BD00000000100000201016000810
:10014C0080B582B000AF00F07BF90C4B7B6000F007
:10015C0019F800F07BF800F04FF864230822796856
:10016C00074801F0B8F8642308227968044801F0C4
:10017C00B2F8C82000F0C6F9F5E700BF2816000851
:10018C002800002080B590B000AF07F1180328229A
:10019C000021184601F02EFA3B1D00221A605A600D
:1001AC009A60DA601A610123BB614FF48033FB6102
:1001BC0000237B6307F11803184600F025FC034667
:1001CC00002B01D000F064F80F237B600123BB608F
:1001DC000023FB6000233B6100237B613B1D00215E
:1001EC00184600F091FE0346002B01D000F050F8A9
:1001FC0000BF4037BD4680BD80B500AF114B124AE1
:10020C001A60104B4FF416525A600E4B00229A6033
:10021C000C4B0022DA600B4B00221A61094B0C22AA
:10022C005A61084B00229A61064B0022DA6105489C
:10023C0001F004F80346002B01D000F029F800BFB0
:10024C0080BD00BF280000200038014080B483B07E
:10025C0000AF0E4B9B690D4A43F0200393610B4B8F
:10026C009B6903F020037B607B68084B9B69074A02
:10027C0043F004039361054B9B6903F004033B605B
:10028C003B6800BF0C37BD4680BC70470010024075
:10029C0080B400AF72B600BFFEE7000080B485B03A
:1002AC0000AF154B9B69144A43F001039361124B49
:1002BC009B6903F00103BB60BB680F4BDB690E4A03
:1002CC0043F08053D3610C4BDB6903F080537B60AC
:1002DC007B680A4B5B68FB60FB6823F0E063FB60A8
:1002EC00FB6843F08063FB60044AFB68536000BF0B
:1002FC001437BD4680BC704700100240000001401E
:10030C0080B588B000AF786007F1100300221A6046
:10031C005A609A60DA607B681B681C4A934231D140
:10032C001B4B9B691A4A43F480439361184B9B699E
:10033C0003F48043FB60FB68154B9B69144A43F044
:10034C0004039361124B9B6903F00403BB60BB680D
:10035C004FF400733B6102237B610323FB6107F1C4
:10036C00100319460B4800F0D5F94FF480633B613C
:10037C0000237B610023BB6107F11003194605487C
:10038C0000F0C8F900BF2037BD4680BD00380140E1
:10039C00001002400008014080B400AFFEE780B4BA
:1003AC0000AFFEE780B400AFFEE780B400AFFEE71D
:1003BC0080B400AFFEE780B400AF00BFBD4680BC88
:1003CC00704780B400AF00BFBD4680BC704780B49E
:1003DC0000AF00BFBD4680BC704780B500AF00F0D9
:1003EC0075F800BF80BD80B400AF00BFBD4680BCB7
:1003FC00704700000C480D490D4A002302E0D45808
:10040C00C4500433C4188C42F9D30A4A0A4C002352
:10041C0001E013600432A242FBD3FFF7E4FF01F0CA
:10042C00C5F8FFF78DFE7047000000200C0000207F
:10043C00641600080C00002070000020FEE700008D
:10044C0080B500AF084B1B68074A43F010031360DC
:10045C00032000F02BF90F2000F008F8FFF71EFF27
:10046C000023184680BD00BF0020024080B582B03A
:10047C0000AF7860124B1A68124B1B7819464FF478
:10048C007A73B3FBF1F3B2FBF3F3184600F035F9D2
:10049C000346002B01D001230EE07B680F2B0AD8FA
:1004AC00002279684FF0FF3000F00BF9064A7B68A8
:1004BC001360002300E0012318460837BD4680BDB9
:1004CC0000000020080000200400002080B400AFD1
:1004DC00054B1B781A46054B1B681344034A1360E3
:1004EC0000BFBD4680BC7047080000206C00002097
:1004FC0080B400AF024B1B681846BD4680BC7047E9
:10050C006C00002080B584B000AF7860FFF7F0FF7E
:10051C00B8607B68FB60FB68B3F1FF3F05D00A4B0A
:10052C001B781A46FB681344FB6000BFFFF7E0FF23
:10053C000246BB68D31AFA689A42F7D800BF00BFCC
:10054C001037BD4680BD00BF0800002080B485B0C8
:10055C0000AF78607B6803F00703FB600C4BDB6833
:10056C00BB60BA684FF6FF031340BB60FB681A020E
:10057C00BB68134343F0BF6343F40033BB60044ACE
:10058C00BB68D36000BF1437BD4680BC704700BF4A
:10059C0000ED00E080B400AF044BDB681B0A03F0F5
:1005AC0007031846BD4680BC704700BF00ED00E055
:1005BC0080B483B000AF03463960FB7197F9073004
:1005CC00002B0ADB3B68DAB20C4997F907301201B1
:1005DC00D2B20B4483F800230AE03B68DAB2084934
:1005EC00FB7903F00F03043B1201D2B20B441A76D1
:1005FC0000BF0C37BD4680BC704700BF00E100E077
:10060C0000ED00E080B489B000AFF860B9607A60AA
:10061C00FB6803F00703FB61FB69C3F10703042BC1
:10062C0028BF0423BB61FB690433062B02D9FB6989
:10063C00033B00E000237B614FF0FF32BB6902FA01
:10064C0003F3DA43BB681A407B699A404FF0FF31E1
:10065C007B6901FA03F3D9437B680B4013431846BB
:10066C002437BD4680BC704780B582B000AF78603F
:10067C007B68013BB3F1807F01D301230FE00A4A71
:10068C007B68013B53600F214FF0FF30FFF790FF69
:10069C00054B00229A60044B07221A60002318466F
:1006AC000837BD4680BD00BF10E000E080B582B0C9
:1006BC0000AF78607868FFF749FF00BF0837BD4688
:1006CC0080BD80B586B000AF0346B9607A60FB731D
:1006DC0000237B61FFF75EFF78617A68B9687869FF
:1006EC00FFF790FF024697F90F3011461846FFF7B7
:1006FC005FFF00BF1837BD4680BD80B582B000AF2C
:10070C0078607868FFF7B0FF034618460837BD4697
:10071C0080BD000080B48BB000AF786039600023DE
:10072C007B6200233B6248E101227B6A02FA03F3FD
:10073C00FB613B681B68FA691340BB61BA69FB69D2
:10074C009A4240F037813B685B68A34A93425ED083
:10075C00A14A934275D8A14A934258D09F4A9342DA
:10076C006FD89F4A934252D09D4A934269D89D4A72
:10077C0093424CD09B4A934263D89B4A934246D0B7
:10078C00994A93425DD8122B2AD8122B59D801A220
:10079C0052F823F01B080008F507000807080008AA
:1007AC00490800084F0800084F0800084F080008C7
:1007BC004F0800084F0800084F0800084F080008B1
:1007CC004F0800084F0800084F0800084F080008A1
:1007DC004F0800084F080008FD0700081108000822
:1007EC00824A934213D02CE03B68DB683B6229E0E1
:1007FC003B68DB6804333B6224E03B68DB6808330E
:10080C003B621FE03B68DB680C333B621AE03B68E1
:10081C009B68002B02D104233B6213E03B689B686E
:10082C00012B05D108233B627B68FA691A6109E048
:10083C0008233B627B68FA695A6103E000233B6240
:10084C0000E000BFBB69FF2B01D87B6801E07B682F
:10085C0004337B61BB69FF2B02D87B6A9B0002E0EF
:10086C007B6A083B9B003B617B691A680F213B69E3
:10087C0001FA03F3DB431A40396A3B6901FA03F3CB
:10088C001A437B691A603B685B6803F08053002B4A
:10089C0000F09080564B9B69554A43F001039361DD
:1008AC00534B9B6903F00103BB60BB68514A7B6AE5
:1008BC009B08023352F82330FB607B6A03F003037E
:1008CC009B000F2202FA03F3DB43FA681340FB6030
:1008DC007B68494A93420DD07B68484A934207D0C3
:1008EC007B68474A934201D1022304E0032302E0D0
:1008FC00012300E000237A6A02F003029200934085
:10090C00FA681343FB603B497B6A9B080233FA6825
:10091C0041F823203B685B6803F48033002B06D03E
:10092C00384B1A683749BB6913430B6006E0354BEB
:10093C001A68BB69DB43334913400B603B685B6847
:10094C0003F40033002B06D02E4B5A682D49BB699B
:10095C0013434B6006E02B4B5A68BB69DB432949B8
:10096C0013404B603B685B6803F48013002B06D08C
:10097C00244B9A682349BB6913438B6006E0214BD7
:10098C009A68BB69DB431F4913408B603B685B680B
:10099C0003F40013002B06D01A4BDA681949BB6913
:1009AC001343CB6006E0174BDA68BB69DB43154990
:1009BC001340CB607B6A01337B623B681A687B6AAD
:1009CC0022FA03F3002B7FF4AFAE00BF00BF2C372D
:1009DC00BD4680BC704700BF0000321000003110D3
:1009EC000000221000002110000012100000111055
:1009FC00001002400000014000080140000C0140C2
:100A0C00001001400004014080B586B000AF786052
:100A1C007B68002B01D101236CE27B681B6803F01F
:100A2C000103002B00F08780924B5B6803F00C03F2
:100A3C00042B0CD08F4B5B6803F00C03082B12D1EA
:100A4C008C4B5B6803F48033B3F5803F0BD1894B3F
:100A5C001B6803F40033002B6CD07B685B68002BA5
:100A6C0068D1012346E27B685B68B3F5803F06D111
:100A7C00804B1B687F4A43F4803313602EE07B6805
:100A8C005B68002B0CD17B4B1B687A4A23F48033B8
:100A9C001360784B1B68774A23F4802313601DE0A6
:100AAC007B685B68B3F5A02F0CD1724B1B68714A45
:100ABC0043F4802313606F4B1B686E4A43F48033FE
:100ACC0013600BE06B4B1B686A4A23F48033136092
:100ADC00684B1B68674A23F4802313607B685B6850
:100AEC00002B13D0FFF704FD386108E0FFF700FD81
:100AFC0002463B69D31A642B01D90323FAE15D4BFF
:100B0C001B6803F40033002BF0D014E0FFF7F0FC6B
:100B1C00386108E0FFF7ECFC02463B69D31A642B02
:100B2C0001D90323E6E1534B1B6803F40033002B7C
:100B3C00F0D100E000BF7B681B6803F00203002BC0
:100B4C0063D04C4B5B6803F00C03002B0BD0494B70
:100B5C005B6803F00C03082B1CD1464B5B6803F459
:100B6C008033002B16D1434B1B6803F00203002B80
:100B7C0005D07B681B69012B01D00123BAE13D4BE9
:100B8C001B6823F0F8027B685B69DB00394913436F
:100B9C000B603AE07B681B69002B20D0364B01229E
:100BAC001A60FFF7A5FC386108E0FFF7A1FC0246CC
:100BBC003B69D31A022B01D903239BE12D4B1B68F4
:100BCC0003F00203002BF0D02A4B1B6823F0F80231
:100BDC007B685B69DB00274913430B6015E0264BF0
:100BEC0000221A60FFF784FC386108E0FFF780FCF4
:100BFC0002463B69D31A022B01D903237AE11D4B20
:100C0C001B6803F00203002BF0D17B681B6803F018
:100C1C000803002B3AD07B689B69002B19D0174B2B
:100C2C0001221A60FFF764FC386108E0FFF760FCF2
:100C3C0002463B69D31A022B01D903235AE10D4B0F
:100C4C005B6A03F00203002BF0D0012000F0D8FA0D
:100C5C001CE00A4B00221A60FFF74AFC38610FE0D7
:100C6C00FFF746FC02463B69D31A022B08D9032333
:100C7C0040E100BF001002400000424280044242AA
:100C8C009E4B5B6A03F00203002BE9D17B681B6867
:100C9C0003F00403002B00F0A6800023FB75974B98
:100CAC00DB6903F08053002B0DD1944BDB69934A25
:100CBC0043F08053D361914BDB6903F08053BB60ED
:100CCC00BB680123FB758E4B1B6803F48073002BF0
:100CDC0018D18B4B1B688A4A43F480731360FFF75F
:100CEC0007FC386108E0FFF703FC02463B69D31AA6
:100CFC00642B01D90323FDE0814B1B6803F4807343
:100D0C00002BF0D07B68DB68012B06D17B4B1B6A78
:100D1C007A4A43F0010313622DE07B68DB68002BF9
:100D2C000CD1764B1B6A754A23F001031362734B8B
:100D3C001B6A724A23F0040313621CE07B68DB68B5
:100D4C00052B0CD16D4B1B6A6C4A43F004031362E8
:100D5C006A4B1B6A694A43F0010313620BE0674B51
:100D6C001B6A664A23F001031362644B1B6A634AD5
:100D7C0023F0040313627B68DB68002B15D0FFF7AC
:100D8C00B7FB38610AE0FFF7B3FB02463B69D31AA5
:100D9C0041F28832934201D90323ABE0574B1B6AD3
:100DAC0003F00203002BEED014E0FFF7A1FB386137
:100DBC000AE0FFF79DFB02463B69D31A41F28832E9
:100DCC00934201D9032395E04C4B1B6A03F00203B9
:100DDC00002BEED1FB7D012B05D1484BDB69474A3B
:100DEC0023F08053D3617B68DB69002B00F081809A
:100DFC00424B5B6803F00C03082B61D07B68DB690A
:100E0C00022B46D13F4B00221A60FFF771FB386171
:100E1C0008E0FFF76DFB02463B69D31A022B01D9A0
:100E2C00032367E0354B1B6803F00073002BF0D1F4
:100E3C007B681B6AB3F5803F08D1304B5B6823F4A9
:100E4C0000327B689B682D4913434B602B4B5B68CE
:100E5C0023F474127B68196A7B685B6A0B4327491D
:100E6C0013434B60274B01221A60FFF741FB38619B
:100E7C0008E0FFF73DFB02463B69D31A022B01D970
:100E8C00032337E01D4B1B6803F00073002BF0D0DD
:100E9C002FE01C4B00221A60FFF72AFB386108E098
:100EAC00FFF726FB02463B69D31A022B01D9032319
:100EBC0020E0124B1B6803F00073002BF0D118E0FC
:100ECC007B68DB69012B01D1012313E00B4B5B68C1
:100EDC00FB60FB6803F480327B681B6A9A4206D184
:100EEC00FB6803F470127B685B6A9A4201D00123A1
:100EFC0000E0002318461837BD4680BD00100240A4
:100F0C00007000406000424280B584B000AF786051
:100F1C0039607B68002B01D10123D0E06A4B1B6840
:100F2C0003F007033A689A4210D9674B1B6823F009
:100F3C00070265493B6813430B60634B1B6803F066
:100F4C0007033A689A4201D00123B8E07B681B681A
:100F5C0003F00203002B20D07B681B6803F0040312
:100F6C00002B05D0594B5B68584A43F4E06353603F
:100F7C007B681B6803F00803002B05D0534B5B68A0
:100F8C00524A43F460535360504B5B6823F0F002B9
:100F9C007B689B684D4913434B607B681B6803F06F
:100FAC000103002B40D07B685B68012B07D1474BBA
:100FBC001B6803F40033002B15D101237FE07B6801
:100FCC005B68022B07D1414B1B6803F00073002BAD
:100FDC0009D1012373E03D4B1B6803F00203002B86
:100FEC0001D101236BE0394B5B6823F003027B6872
:100FFC005B68364913434B60FFF77AFAF8600AE0F6
:10100C00FFF776FA0246FB68D31A41F28832934214
:10101C0001D9032353E02D4B5B6803F00C027B6872
:10102C005B689B009A42EBD1274B1B6803F00703CC
:10103C003A689A4210D2244B1B6823F007022249CB
:10104C003B6813430B60204B1B6803F007033A68A3
:10105C009A4201D0012332E07B681B6803F0040341
:10106C00002B08D0194B5B6823F4E0627B68DB68CB
:10107C00164913434B607B681B6803F00803002B75
:10108C0009D0124B5B6823F460527B681B69DB0050
:10109C000E4913434B6000F021F802460B4B5B6882
:1010AC001B0903F00F030A49CB5C22FA03F3094A2C
:1010BC001360094B1B681846FFF7D8F90023184634
:1010CC001037BD4680BD00BF00200240001002401A
:1010DC0044160008000000200400002090B48AB0E0
:1010EC0000AF2A4B3C1D0FCB84E80F0040F20123CC
:1010FC003B800023FB610023BB6100237B62002348
:10110C007B6100233B62224B5B68FB61FB6903F054
:10111C000C03042B02D0082B03D02DE01D4B3B629B
:10112C002DE0FB699B0C03F00F0307F1280213441D
:10113C0013F8243C7B61FB6903F48033002B13D040
:10114C00134B5B685B0C03F0010307F1280213449B
:10115C0013F8283CBB617B690E4A02FB03F2BB69A6
:10116C00B2FBF3F37B6204E07B690B4A02FB03F3F3
:10117C007B627B6A3B6202E0064B3B6200BF3B6AD0
:10118C0018462837BD4690BC704700BF341600087F
:10119C000010024000127A0000093D0080B400AF3C
:1011AC00024B1B681846BD4680BC704700000020EF
:1011BC0080B500AFFFF7F2FF0246054B5B681B0AD8
:1011CC0003F007030349CB5C22FA03F3184680BDF6
:1011DC00001002405416000880B500AFFFF7DEFF88
:1011EC000246054B5B68DB0A03F007030349CB5C43
:1011FC0022FA03F3184680BD001002405416000872
:10120C0080B485B000AF78600A4B1B680A4AA2FB19
:10121C0003235B0A7A6802FB03F3FB6000BFFB68E5
:10122C005A1EFA60002BF9D100BF00BF1437BD461F
:10123C0080BC704700000020D34D621080B582B096
:10124C0000AF78607B68002B01D101233FE07B6805
:10125C0093F83D30DBB2002B06D17B68002283F87B
:10126C003C207868FFF74CF87B68242283F83D20FB
:10127C007B681B68DA687B681B6822F40052DA60B2
:10128C00786800F005F97B681B681A697B681B6835
:10129C0022F490421A617B681B685A697B681B6850
:1012AC0022F02A025A617B681B68DA687B681B682B
:1012BC0042F40052DA607B6800221A647B682022B8
:1012CC0083F83D207B68202283F83E2000231846BB
:1012DC000837BD4680BD80B58AB002AFF860B960F2
:1012EC003B601346FB8000237B61FB6893F83D3029
:1012FC00DBB2202B7CD1BB68002B02D0FB88002BEF
:10130C0001D1012375E0FB6893F83C30012B01D12E
:10131C0002236EE0FB68012283F83C20FB6800226C
:10132C001A64FB68212283F83D20FFF7E1F878610D
:10133C00FB68FA889A84FB68FA88DA84FB689B68F5
:10134C00B3F5805F08D1FB681B69002B04D1002327
:10135C00FB61BB68BB6103E0BB68FB610023BB6145
:10136C00FB68002283F83C202AE03B6800937B69F1
:10137C0000228021F86800F040F80346002B01D0D1
:10138C00032336E0FB69002B0BD1BB691B881A4683
:10139C00FB681B68C2F308025A60BB690233BB616D
:1013AC0007E0FB691A78FB681B685A60FB6901331C
:1013BC00FB61FB68DB8C9BB2013B9AB2FB68DA8465
:1013CC00FB68DB8C9BB2002BCFD13B6800937B6915
:1013DC0000224021F86800F010F80346002B01D0E1
:1013EC00032306E0FB68202283F83D20002300E065
:1013FC00022318462037BD4680BD80B584B000AFAF
:10140C00F860B9603B601346FB712CE0BB69B3F12B
:10141C00FF3F28D0BB69002B07D0FFF769F80246C5
:10142C003B68D31ABA699A421DD2FB681B68DA680A
:10143C00FB681B6822F4D072DA60FB681B685A697F
:10144C00FB681B6822F001025A61FB68202283F8BA
:10145C003D20FB68202283F83E20FB68002283F8A5
:10146C003C2003230FE0FB681B681A68BB68134021
:10147C00BA689A420CBF01230023DBB21A46FB79EF
:10148C009A42C3D0002318461037BD4680BD0000D9
:10149C0080B584B000AF78607B681B681B6923F44F
:1014AC0040517B68DA687B681B680A431A617B6869
:1014BC009A687B681B691A437B685B691343BB6042
:1014CC007B681B68DB6823F4B05323F00C037A6849
:1014DC001268B9680B43D3607B681B685B6923F4A3
:1014EC0040717B689A697B681B680A435A617B6808
:1014FC001B682C4A934203D1FFF76EFEF86002E0A2
:10150C00FFF756FEF860FA6813469B0013449A00E6
:10151C001A447B685B689B00B2FBF3F3224AA2FB84
:10152C0003235B091901FA6813469B0013449A00C4
:10153C001A447B685B689B00B2FBF3F21A4BA3FB6B
:10154C0002035B09642000FB03F3D31A1B01323343
:10155C00154AA2FB03235B0903F0F0031944FA6854
:10156C0013469B0013449A001A447B685B689B00EB
:10157C00B2FBF3F20C4BA3FB02035B09642000FBF0
:10158C0003F3D31A1B013233074AA2FB03235B0973
:10159C0003F00F027B681B680A449A6000BF103787
:1015AC00BD4680BD003801401F85EB5170B500264B
:1015BC000C4D0D4C641BA410A64209D100F022F86E
:1015CC0000260A4D0A4C641BA410A64205D170BD1E
:1015DC0055F8043B98470136EEE755F8043B98471D
:1015EC000136F2E75C1600085C1600085C16000871
:1015FC006016000803460244934200D1704703F87A
:10160C00011BF9E7F8B500BFF8BC08BC9E46704753
:0C161C00F8B500BFF8BC08BC9E46704743
:10162800686920626F790D0A000000000203040552
:10163800060708090A0B0C0D0E0F10100000000019
:10164800000000000102030406070809000000006A
:041658000102030484
:04165C003101000850
:041660000D01000870
:0C1664000024F400100000000100000051
:0400000508000401EA
:00000001FF
